:060000000A128A11122809
:10000800FE00030E83120313BE000408BF000A0893
:10001800C0007F08C1000A128A11C32B0A128A1174
:100028001528FC01FD01C301C401C501C601C701B2
:10003800C80183160313C301C401C501C601C70162
:10004800C801C901CA01831203130A128A1165265D
:100058000A128A11C9000A128A1166260A128A111E
:10006800CA000A128A1167260A128A11CB000A12DC
:100078008A1168260A128A11CC000A128A11692686
:10008800CD0083010A128A1149288130831603138F
:1000980086000130870006308312031381008B1617
:1000A8008B168B170B17831603130114811001117C
:1000B800811181120C17831203131F148316031363
:1000C8001F109F101F119F11831203131F179F17D3
:1000D800831603131F139F17831203139F111F12F5
:1000E8009F128B2983160313C501C601C901CA01D2
:1000F8008312031387118710071500308316031323
:10010800AA00AB000430AC000030AD000030AE00F7
:10011800AF000A128A11E7220A128A118316031302
:100128004A08AB004908AA000230AC000030AD0014
:100138000130AE000030AF000A128A11E7220A121D
:100148008A1183120313871E8D2903308316031324
:10015800BF000030C000C101C2010130E52883168C
:1001680003134A08B5004908B4000A128A11842406
:100178000A128A11831603133508CA003408C90005
:1001880083120313071C8D298316031349084A0495
:1001980003198D29E428831203138711023083166B
:1001A8000313BC000430BB00BA30BA00BA0BDA281B
:1001B800BB0BDA28BC0BDA280000831203131F15C7
:1001C8000230FC000030FD008D29831603134A0815
:1001D800A1004908A0004408A3004308A2000A128D
:1001E8008A1112260A128A11831603132108C800DD
:1001F8002008C7004808B5004708B4000A128A1149
:100208002B240A128A1183160313340835040319A0
:1002180011290130FC000030FD0003304602E830AF
:1002280003194502031C8D290130BD070318BE0AB6
:100238000030BE07C501C6013E08803AFF00803085
:100248007F02031D292903303D02031C332983162D
:100258000313BD01BE010430FC000030FD0083160D
:1002680003134008A7003F08A6004208A900410858
:10027800A8000A128A11FA250A128A118316031392
:100288002708AB002608AA000430AC000030AD00F7
:100298000030AE00AF000A128A11E7220A128A1152
:1002A8008316031341084204031972290130C1025D
:1002B8000030031CC203C2024408AB004308AA0072
:1002C8000230AC000030AD000130AE000030AF00AD
:1002D8000A128A11E7220A128A118D29831603133A
:1002E8003F084004031983290130BF020030031C72
:1002F800C003C0023B30C1000030C2008D2900306D
:10030800B400B5000A128A112B240A128A11FC01C2
:10031800FD017D08003A031992298D297C08003ACD
:1003280003197628013A0319B328033A0319E9286F
:10033800063A0319CF288D298D2983120313230820
:10034800A6002408A7002508A8000310270D280DDB
:10035800A9002908AE002E08031DB9290030A00005
:100368000030A1000030A20008002008A6002108E3
:10037800A7002208A8000310270D280DA9002908A6
:10038800AF002F08031DCF290030A0000030A100C6
:100398000030A20008000030AB000030AC00003094
:1003A800AD0089302F07A6002608AE022308A60054
:1003B8002408A7002508A80010300310A80CA70CD3
:1003C800A60CFF3E031DE1292608A9002908AF0055
:1003D8002008A6002108A7002208A8001030031052
:1003E800A80CA70CA60CFF3E031DF3292608A9009C
:1003F8002908AF068030A6002608AF05A417FF30ED
:10040800A305FF30A4050030A505A117FF30A005FE
:10041800FF30A1050030A2051830A6002608AA0062
:1004280001300310AB0DAC0DAD0DFF3E031D152AB9
:1004380022082502031D262A21082402031D262A34
:1004480020082302031C332A2008A3022108031CC6
:10045800210FA4022208031C220AA5022B14013032
:100468000310A30DA40DA50DFF3E031D342A013072
:10047800AA02031D142A2B08F0002C08F1002D08ED
:10048800F2002E08A6002608F3002F08A700270868
:10049800F4000A128A115723700883120313A0006C
:1004A8007108A1007208A200080083120313300823
:1004B800B4003108B5003208B6000310350D360D0A
:1004C800B7003708BD003D08031D732A0030B3008C
:1004D8000030B2000030B1000030B0000800300831
:1004E800B4003108B5003208B60017300310B60C56
:1004F800B50CB40CFF3E031D7A2A3408B700370840
:10050800B800B117FF30B005FF30B1050030B205B3
:100518003008B9003108BA003208BB00BC018E307F
:10052800BD02BD1FB52A3D08803A8F3E0318A52A93
:100538000030B3000030B2000030B1000030B0002D
:10054800080001300310BC0CBB0CBA0CB90CFF3E00
:10055800031DA62A0130B4003408BD070319D02AA8
:10056800A52A18303D02031CCD2A0030B300003004
:10057800B2000030B1000030B00008000130B40013
:100588000310B90DBA0DBB0DBC0DB40BC42A013054
:10059800BD023D08031DC22A38080319DE2AB9091D
:1005A800BA09BB09BC09B90A0319BA0A0319BB0A73
:1005B8000319BC0A3C08B3003B08B2003A08B10072
:1005C8003908B0000800831603132E082F04031DF2
:1005D800F12A831203138611F42A831203130613D4
:1005E80083160313B201B3012D083302031DFE2A3B
:1005F8002C0832020318352B2B08A6002A08A50060
:100608000A128A1128260A128A1183160313B000C7
:100618003008B1002B08A8002A08A7000A128A117E
:100628003D260A128A11831603132808AB002708EF
:10063800AA002F08A1002E08A00031080A128A116A
:1006480064250A128A110A128A11D8240A128A11F8
:10065800013083160313B2070318B30A0030B30737
:10066800F82A2E082F04031D3D2B83120313861529
:10067800402B831203130617F93083160313B000B7
:100688000000B00B442B482B0000831603132E08E0
:100698002F04031D532B83120313861108008312A2
:1006A800031306130800730803195F2B72087104FB
:1006B8007004031D722B0030F0000030F100003090
:1006C800F20008000130F5007508F3070130031047
:1006D800F20CF10CF00CFF3E031D6B2BFE30720583
:1006E80003198D2B662B0130F5007508F3070130CF
:1006F800F007003003180130F1070030031801300B
:10070800F20701300310F20CF10CF00CFF3E031D50
:10071800862BFF3072050319A02B772B023073024A
:10072800031CA22B0130F30201300310F00DF10D70
:10073800F20DFF3E031D992BF11F922B7318AA2B64
:10074800FF30F0057F30F105FF30F2050310F30CA0
:100758007308F500F601F70110300310F50DF60DDA
:10076800F70DFF3E031DB12B7508F0047608F10460
:100778007708F204740803190800F21708000B1D23
:10078800DD2B0B1102307C067D04031DDB2B0130B1
:1007980083160313C5070318C60A0030C6070130BD
:1007A80083120313C7070318C80A0030C8070630A6
:1007B80081000C1F202C0C131E08C600831603137F
:1007C8001E0883120313C5004608F9004508F800FF
:1007D8000A128A1151260A128A1178088312031301
:1007E800A3007908A4007A08A5004830A0002530A5
:1007F800A1004130A2000A128A11A1210A128A110D
:10080800831203132008B0002108B1002208B200A7
:100818000A128A1159220A128A1183120313310803
:1008280083160313C40083120313300883160313BB
:10083800C300831203131F144108FF0040088A00F5
:100848003F0884003E0E8300FE0E7E0E09008316CC
:1008580003133508803AFF0080307F02031D362CD1
:1008680001303402031C422C8312031387158714AA
:10087800071583160313B401B50108008316031383
:10088800B51F502C83120313871087110711831685
:100898000313B401B50108008312031387108711ED
:1008A8000715831603134408AB004308AA00023057
:1008B800AC000030AD000130AE000030AF000A12CD
:1008C8008A11E7220A128A118312031307160330CA
:1008D80083160313B8008A30B7005630B600B60B3B
:1008E800732CB70B732CB80B732C7A2C831203134D
:1008F8000712013083160313B4000030B500080056
:10090800831603133508B9003408B800831203139B
:10091800061CA92CF73083160313B700BF30B600A6
:10092800B60B942CB70B942C992C00308316031318
:1009380039020D30031938020318D12C0130B807D9
:100948000318B90A0030B907C22C861FD12CF7301A
:1009580083160313B700BF30B600B60BB12CB70B24
:10096800B12CB62C83160313380839040319D12C7B
:100978000130B8020030031CB903B9023908AB00D2
:100988003808AA000230AC000030AD000130AE00DB
:100998000030AF000A128A11E722831603133908C0
:1009A800B5003808B400080083160313A400A50195
:1009B800083025020318080020082104031DE82C2C
:1009C800831203138610EB2C8312031386128316EB
:1009D8000313A41FFB2C20082104031DF72C8312EA
:1009E80003130615082D831203130616082D831604
:1009F800031320082104031D052D83120313061178
:100A0800082D831203130612831603132408A20069
:100A18002207A3002308A40020082104031D182D81
:100A28008312031386141B2D8312031386160130B9
:100A380083160313A2002208A507DC2C83160313D0
:100A4800A501A6012008210403195F2DA401A40A09
:100A5800A11B3E2D01300310A00DA10DFF3E031D6B
:100A68002F2D013083120313C2004208831603138B
:100A7800A4072C2D01300310A50DA60DFF3E031D64
:100A88003F2D21082302031D4B2D20082202031CA1
:100A9800542D2008A2022108031CA303A302251435
:100AA80001300310A10CA00CFF3E031D552D013091
:100AB800A402031D3E2D2608A1002508A000080059
:100AC80083120313C2007E2DC0300800F9300800DD
:100AD800A4300800B03008009930080092300800AF
:100AE80082300800F830080080300800983008008C
:100AF800003008004208003A0319682D013A03192A
:100B08006A2D033A03196C2D013A03196E2D073A21
:100B18000319702D013A0319722D033A0319742D24
:100B2800013A0319762D0F3A0319782D013A031962
:100B38007A2D7C2D0800831603132008210403193D
:100B4800D22DA401A40AA11BB92D01300310A00DB8
:100B5800A10DFF3E031DAA2D013083120313C2000D
:100B6800420883160313A407A72D21082302031D97
:100B7800BF2D20082202031CC72D2008A20221082D
:100B8800031CA303A30201300310A10CA00CFF3E19
:100B9800031DC82D0130A402031DB92D2308A1008F
:100BA8002208A000080083160313A401A501201C35
:100BB800E32D2208A4070318A50A2308A507013076
:100BC8000310A20DA30DFF3E031DE42D01300310F9
:100BD800A10CA00CFF3E031DEB2D20082104031DD2
:100BE800DB2D2508A1002408A000080083160313A4
:100BF8002708A1002608A0006430A2000030A30046
:100C08000A128A11D7258316031328082007A6007D
:100C180029080318290A2107A700080083160313C7
:100C28002209A4002309A500A40A0319A50A20087B
:100C38002407A60021080318210A2507A70027086A
:100C4800A1002608A00008000A3083160313A0009C
:100C58000030A1002608A3002508A2000A128A1164
:100C68009F25831603132008A7002708A800280833
:100C780008000A3083160313A0000030A1002808DA
:100C8800A3002708A2000A128A112225831603133B
:100C98002108A8002008A70008007808F0007908B3
:100CA800F100F2018E30FB007B08F300F4010A1218
:100CB8008A1157237008F8007108F9007208FA00C1
:0C0CC8000800C1344A343F3414340034B6
:02400E0031FF80
:00000001FF
